:100000000C9446000C9454090C9455090C9465000A
:100010000C9465000C9465000C9465000C946500CC
:100020000C9465000C9462090C9465000C945C09B6
:100030000C9465000C9465000C9465000C946500AC
:100040000C9456090C9465000C9465000C946500A2
:100050000C9465000C9465000C9465000C9465008C
:100060000C9465000C9465000C9465000C9465007C
:100070000C9465000C9465000C94D4050C946500F8
:100080000C9469050C9465000C94650011241FBE46
:10009000CFEFD0E1DEBFCDBF11E0A0E0B1E0ECEBEF
:1000A000F3E100E00BBF02C007900D92A630B1074C
:1000B000D9F726E0A6E0B1E001C01D92A438B2074E
:1000C000E1F70E949A090C94C0090C940000E6E73D
:1000D000F1E01082349681E0E63BF807D1F7109208
:1000E000750108959091750180E0E92FE80FEF7098
:1000F00024E0E29FF0011124EA58FE4F20812223E0
:1001000021F08F5F803189F7089580910801818304
:1001100080910901828380910A01838381E0808339
:1001200008950F931F93CF93DF938091750190E013
:100130008C01000F111F000F111FE801CA58DE4F7C
:1001400028812130D1F40E949F05882339F06981EC
:1001500088818F5F8883833031F41882DF91CF915B
:100160001F910F9108956F706E5FC80189589E4F5F
:100170000E94AD0582E08883F1CF2111EFCF019677
:100180008F70992780937501E9CFE091750184E024
:10019000E89FF0011124EA58FE4F8081823051F42B
:1001A000809106018F5F80930601803118F01082E4
:1001B000109206010895809107018F5F80930701D7
:1001C000E091750184E0E89FF0011124EA58FE4FA8
:1001D0008081823021F41092060181E080830895AD
:1001E000E6E7F1E08081811107C0349681E0E63BCB
:1001F000F807C1F781E0089580E008950895962FEB
:10020000A7EBB1E0FB018E2F891B841730F04093E0
:10021000B60181E080930D01089581918D93F3CF14
:1002200010920F0108950197E8E0F1E022E42083A5
:100230009C013695279536952795218381FB992733
:1002400090F9906892831092000180930C010E94B3
:10025000720080E00895E8E0F1E081E2808384E2CA
:100260008183109200018FEF80930C010E94720035
:1002700080E008950E942B0181E080930F01089592
:10028000CF9320910E012223E1F0019722E52093E4
:1002900008019C01369527953695279520930901ED
:1002A000880F86706170C82FC62B8C2F886880934A
:1002B0000A010E947200C068C0930A01CF910C9499
:1002C0007200CF9108958FEF90E090931C0180937E
:1002D0001B018EEF90E090931401809313018AE349
:1002E00091E090931A018093190180E191E090933D
:1002F0001801809317010895262F30E064FBEE2744
:10030000E0F9F0E090E0880F991FE82BF92B80913D
:100310000001811108C080910C018E171F0619F48D
:1003200081E0809300016370EE0FFF1FDF01A95091
:10033000BE4F613021F06230A1F01C9202C082E019
:100340008C93359527953595279523703327E8505D
:10035000FE4F2130310539F02230310539F010825D
:10036000089581E0EDCF82E08083089581E0FCCFA5
:100370000F931F93CF93DF938091B601833069F47D
:100380008091B701813661F58091B801811149C032
:1003900010920E0102C080930E018091B6019091DF
:1003A000B701843039F5923629F58091B80182324F
:1003B00091F480910001811107C080910C018F3F61
:1003C00019F481E0809300018091B9018B7479F474
:1003D00081E080930E01DF91CF911F910F910895DD
:1003E0008138D9F68091B8018111D7CFD1CF109241
:1003F0000E01F1CF923479F782508093B601C7EBAA
:10040000D1E001E010E08091B6018017110619F3E8
:1004100010F36A8189810E947C010E5F1F4F229632
:10042000F2CF813009F4B7CF823009F4B1CF8138EF
:1004300009F0B3CF0E94DB00B0CF80910D0188237B
:1004400021F010920D010C94B80108950F931F93A1
:10045000CF93C62F8150082F10E009501E4FF8018E
:10046000808181110BC06091F9058C2F0E940707D4
:100470006091F90581E08C0F0E940707F8018081E7
:10048000813051F46091F8058C2F0E94070760E0DD
:1004900081E08C0F0E940707F8018081823051F4BF
:1004A00060E08C2F0E9407076091F80581E08C0FB7
:1004B0000E940707F8018081833061F463E08C2F8C
:1004C0000E94070763E081E08C0FCF911F910F918D
:1004D0000C940707CF911F910F9108958150E82F39
:1004E000F0E0E950FE4F81E09081913009F080E02A
:1004F0000895CF93DF93C82F0E946E02D0E060E092
:10050000811101C061E0CE01DF91CF910C944001D7
:1005100080910E01882379F091E09093F805109274
:10052000F905E0911001E150E830D8F4F0E0EE5325
:10053000F64F0C94B70992E09093F8059093F90563
:10054000F0CF60E084E00E94260262E087E00E9433
:10055000260264E085E00E94260266E087E00E94B1
:10056000260280911001882309F448C18F5F8930E9
:1005700008F042C180931001089568E08BE00E946A
:1005800026026AE085E00E9426026CE089E00E9473
:1005900026026EE089E0E3CF8FE30E946E0260E006
:1005A000811101C061E080E10E94070790E080E0D6
:1005B0000E94C106882329F061E084E090E00E9457
:1005C000400181E090E00E94C106882329F060E0AC
:1005D00084E090E00E94400182E090E00E94C10629
:1005E000882309F4BECF61E087E090E00E944001DB
:1005F000B8CF83E090E00E94C106882329F060E034
:1006000087E090E00E94400184E090E00E94C106F3
:10061000882329F061E085E090E00E94400185E0B8
:1006200090E00E94C106882329F060E085E090E018
:100630000E94400186E090E00E94C106882309F4F0
:1006400090CF61E08BE090E0D1CF882309F489CF8F
:1006500087E090E00E94C106882329F060E08BE0EB
:1006600090E00E94400188E090E00E94C10688234B
:1006700029F060E089E090E00E94400189E090E08C
:100680000E94C106882329F061E089E090E00E9481
:1006900040018AE090E00E94C106882309F461CFFE
:1006A0008FE30E946E0261E068278FE390E09ECFA7
:1006B000882309F456CF8BE090E00E94C10688237E
:1006C00019F089E80E9479028CE090E00E94C1064E
:1006D000882319F08AE80E9479028DE090E00E9458
:1006E000C106882309F43DCF8BE80E94790239CFF7
:1006F0008EE090E00E94C106882329F061E081E845
:1007000090E00E9440018EE090E00E94E406882381
:1007100029F062E081E890E00E9440018FE090E0E3
:100720000E94C106882329F061E082E890E00E94DF
:1007300040018FE090E00E94E406882329F062E007
:1007400082E890E00E94400180E190E00E94C106B2
:10075000882329F061E083E890E00E94400180E175
:1007600090E00E94E406882329F062E083E890E0AC
:100770000E94400181E190E00E94C106882329F097
:1007800061E084E890E00E94400181E190E00E94F5
:10079000E406882309F4E5CE62E084E890E026CF01
:1007A00082E190E00E94C106882329F061E085E89B
:1007B00090E00E94400182E190E00E94E4068823DC
:1007C00029F062E085E890E00E94400183E190E03A
:1007D0000E94C106882329F061E086E890E00E942B
:1007E000400183E190E00E94E406882309F4B9CE39
:1007F00062E086E890E0FACE1092100108958091B0
:100800000E01882309F49FC081E08093F8051092BF
:10081000F90580911101882309F45FC0109211013C
:1008200080911001811103C081E0809310018091BB
:1008300012018F5F8093120180910F01882309F4C8
:1008400051C0809101018823B1F181508093010151
:10085000853021F584E090E00E94130185E090E06E
:100860000E94130187E090E00E94130189E090E06C
:100870000E9413018BE090E00E9413018FE390E04F
:100880000E94130189E890E00E9413018AE890E039
:100890000E9413018BE890E00E94130180910101F6
:1008A000833049F40E94F000811105C0809101015C
:1008B0008F5F8093010180910101823009F049C06E
:1008C000E7EFF1E080E09191890F92E0EB30F907DA
:1008D000D1F7843010F01092010180910F01811145
:1008E0000E94880280910E01811107C08091010150
:1008F000882319F08AE08093010180910F01811112
:1009000055C08AE080930101809112018C3010F073
:10091000109212018091120181113DC060E086E1C8
:100920000E94070760E087E10E940707809112019B
:1009300063E0880F0E94070780911201880F63E02F
:100940008F5F0C94070782E08093F8058093F90588
:1009500060CF813009F0C1CF61E084E090E00E9477
:10096000400161E085E090E00E94400161E087E0A5
:1009700090E00E94400161E089E090E00E94400127
:1009800061E08BE090E00E94400161E08FE390E045
:100990000E944001A2CF815860E0880F0E940707A3
:1009A00080911201880F60E08150BECF089581E0F0
:1009B00080931101089582E083BF1BBC1ABC19BC4F
:1009C00018BC84ED90E397BD86BD1FBC8AE18EBD47
:1009D00087B7806287BF08958093030610929800BE
:1009E00010929900EBE9F0E080818D7F8083E2E650
:1009F000F0E080818E7F808386E080939D008CED87
:100A000080939A00089580912001909121018E3168
:100A10009105A0F4019690932101809320014E97B7
:100A200069F480912201882349F010922201E0911B
:100A30001701F0911801309709F0099408958091F9
:100A4000240181111AC081E080932301E0912601E5
:100A50009FEF9E0FE150FF0B4AEF55E0DA0180E077
:100A60002A2F241B291730F0E650FA4F808390E09C
:100A700080E008952D918227F3CF81E090E00895E2
:100A800080919B0085FFFCCF80919A008E7F8093A0
:100A90009A00E0912501F0E0E650FA4F80818093C2
:100AA0009C00809125018F5F80932501089581E04E
:100AB00080932401109223011092250180916200FD
:100AC00081608093620080919B0085FFFCCF0C9435
:100AD00040051F920F920FB60F9211240BB60F9282
:100AE0002F933F934F935F936F937F938F939F9336
:100AF000AF93BF93EF93FF939091250180912601CF
:100B00009817A8F40E944005FF91EF91BF91AF9113
:100B10009F918F917F916F915F914F913F912F9115
:100B20000F900BBE0F900FBE0F901F9018958091E5
:100B300062008E7F8093620010922401E5CF809145
:100B40002401811108C080912301811104C080918A
:100B500022018170089580E0FCCF1F93CF93DF9333
:100B6000D82F192FC62F0E949F058823D1F082E02D
:100B700090E0C93078F49D2FAAEFB5E0ED2FF12F6A
:100B80008E2F891B8C1750F0C09326010E941F05E1
:100B900090E080E0DF91CF911F91089581918D9336
:100BA000EFCF81E090E0F6CF1F920F920FB60F9239
:100BB00011240BB60F922F933F934F935F936F9334
:100BC0007F938F939F93AF93BF93CF93EF93FF93B5
:100BD00080919B0090919A00C0919C008C7191F53E
:100BE00091FF60C02C2F98E0322F3170832726951B
:100BF0009150D1F7811126C08C2F8F7180930206FE
:100C0000C295C695C3709091030689133CC0C2304B
:100C100069F58091230181110E94570510922101ED
:100C2000109220010E94C5008091220181110AC00A
:100C300081E080932201E0911901F0911A0130972F
:100C400009F00995FF91EF91CF91BF91AF919F91DD
:100C50008F917F916F915F914F913F912F910F9065
:100C60000BBE0F900FBE0F901F901895C1110BC0B7
:100C700080E28093FA058093FB0582E08093260151
:100C80000E945705DFCF81110AC0C13041F481E0D5
:100C900080931E0110921D0110921F01D3CFC3300B
:100CA00089F6F5CF80911E01811115C09091020641
:100CB0008091030698130FC082B76FE10E94AB09C1
:100CC00081E0890F80930306E0911501F0911601F0
:100CD000309709F0099580911F0187FD0DC0909113
:100CE0001D019C2790931D01E82FF0E0EC5FF94F68
:100CF000C0838F5F80931F018091040640911F0184
:100D0000982F9F709E5F491708F49CCF90911D010A
:100D1000911114C08F718093020690911E01E09191
:100D20001B01F0911C01911104C0E0911301F0919D
:100D30001401309719F064E076E0099510921E01D5
:100D4000A9CF88E78BBB80E688BB8EE485BB80E3B8
:100D500082BB90EC93B99EE99093620091E09093EE
:100D6000650094E89ABB91E997BB91EB94BB9AEC30
:100D700091BB82B981E68093610082E08093640038
:100D80000895FC0193E0F695E7959A95E1F7FF2722
:100D9000EF5BFE4F3081282F2770432F50E0022E4B
:100DA00002C0559547950A94E2F740FF0BC081E0D9
:100DB00090E001C0880F2A95EAF78095832380830D
:100DC00081E0089580E00895FC0193E0F695E795B1
:100DD0009A95E1F7FF27E25CFE4F3081282F2770BC
:100DE000432F50E0022E02C0559547950A94E2F732
:100DF00040FF0BC081E090E001C0880F2A95EAF720
:100E000080958323808381E0089580E00895E82F12
:100E1000F0E0E65BFE4F608308958150843108F076
:100E200091C0E82FF0E0E653F64F0C94B70980919B
:100E30006D01CE9904C0816080936D0108958E7F0D
:100E4000FBCF80916D01CD9902C08260F5CF8D7F7F
:100E5000F3CF80916D019A9902C08460EDCF8B7FB2
:100E6000EBCF80916D019B9902C08860E5CF877FB1
:100E7000E3CF80916D01849902C08061DDCF8F7EC8
:100E8000DBCF80916D01859902C08062D5CF8F7DC7
:100E9000D3CF80916D01079902C08064CDCF8F7B45
:100EA000CBCF80916D01CB9902C08068C5CF8F7781
:100EB000C3CF80916E010F9904C0816080936E0151
:100EC00008958E7FFBCF80916E010E9902C08260E3
:100ED000F5CF8D7FF3CF80916E01049902C08460BD
:100EE000EDCF8B7FEBCF80916E01039902C08860BC
:100EF000E5CF877FE3CF80916E01029902C08061C8
:100F0000DDCF8F7EDBCF80916E01019902C08062C0
:100F1000D5CF8F7DD3CF80916E01CC9902C08064F4
:100F2000CDCF8F7BCBCF80916E01999902C0806825
:100F3000C5CF8F77C3CF80916F01B69904C0816010
:100F400080936F0108958E7FFBCF80916F019E99F2
:100F500002C08260F5CF8D7FF3CF80916F01B5998C
:100F600002C08460EDCF8B7FEBCF909163008091C6
:100F70006F0190FD02C08860E3CF877FE1CF809151
:100F8000470180FF50C0DF9A8091470181FF4DC02B
:100F9000AF9A8091470182FF4AC0AC9A8091470185
:100FA00083FF47C0AD9A8091470184FF44C0969A61
:100FB0008091470185FF41C0979A8091470186FF44
:100FC0003EC0A89A8091470187FF3BC08091650091
:100FD000826080936500809148019091620080FF5B
:100FE00034C090649093620081FF31C0DA9A82FF2E
:100FF00030C0C79A83FF2FC0919A84FF2EC0C09A39
:1010000085FF2DC0C49A86FF2CC01C9A87FF2BC079
:101010001D9A8091490180FF28C080916200806202
:10102000809362000895DF98AFCFAF98B2CFAC98AD
:10103000B5CFAD98B8CF9698BBCF9798BECFA898AC
:10104000C1CF809165008D7FC4CF9F7BCBCFDA98D5
:10105000CECFC798CFCF9198D0CFC098D1CFC498DA
:10106000D2CF1C98D3CF1D98D4CF809162008F7DB2
:10107000D7CF282F26952695269530E0782F7770A4
:10108000F901E359FE4F408150E0072E02C055950B
:1010900047950A94E2F74170E82FF0E0D901A05992
:1010A000BE4F8C9190E0072E02C0959587950A94CB
:1010B000E2F78170E65DFE4F4817B9F080818F5FDF
:1010C0008083861798F0F901E659FE4F208181E070
:1010D00090E001C0880F7A95EAF7442319F0822B3B
:1010E0008083089580958223FBCF10820895E82F96
:1010F000F0E0E65BFE4F50815370E82FE695E695F1
:10110000E695F0E0E95BFE4F4081877021E030E03A
:10111000B90102C0660F771F8A95E2F7CB01523002
:1011200039F0533061F0513039F08095842305C097
:10113000209102012223C9F3842B808308952091FA
:101140000301F8CFCF93DF9380912701811103C072
:1011500081E080932701809129018823B1F080915B
:10116000270110922901811103C081E0809327019A
:10117000809128018F5F863020F58093280180912F
:101180000301882359F110920301C0912701DC2F3C
:10119000DF718C2F90E09C0145E0359527954A95AD
:1011A000E1F723702130F1F48D2F0E940D0780911B
:1011B0002701882319F08F5F80932701DF91CF915A
:1011C00008951092280180910201882319F010924D
:1011D0000201D5CF81E080930201D1CF81E08093DD
:1011E0000301D3CF2230A9F4D13138F0D43168F4DF
:1011F00063E08D2F0E943908DACF8D2F0E94770887
:1012000063E08D2F0E943908F3CFCF61C09327018F
:10121000CECF233061F623E0959587952A95E1F7A7
:101220008370DC2FD770811114C08D2F90E0FC01EA
:10123000E059FE4F86599E4FDC018C918083D2305D
:1012400009F0B5CFC760E2CF0E94BF07D111AFCF81
:10125000F9CF8130C9F3823009F0A9CF2D2F30E0CA
:10126000F901E059FE4F4081D901AC5BBE4F8C9132
:10127000F901EF5BFE4F982F909594235081952BA9
:101280009083F901E25CFE4F842B84279081892BA7
:1012900080834C93D23009F08ACF1092270187CFF8
:1012A00081E0809329010895189518958F9381E026
:1012B000809374018F9118958F9381E080937301CF
:1012C0008F911895189580917301882391F0109251
:1012D00073010E9450090E94D7040E940305809167
:1012E000040190910501019729F0909305018093E5
:1012F0000401089580EE9EE2F8CF8091740181117F
:101300001092740108950E94A106E1E6F0E0808148
:1013100081608083E2E6F0E080818E7F80830E949E
:10132000DB048AE10E94EC040E9467000E946301D2
:101330007894089587EF8CBF0E9483090E947D09ED
:101340000E9463090E94A2080E941D020E9491004F
:101350000E94FF03F3CF991B79E004C0991F9617F1
:1013600008F0961B881F7A95C9F780950895EE0FAF
:10137000FF1F0024001C0BBE0790F691E02D09947E
:10138000F894FFCFA102BD02CC02F9022503580355
:101390007803D003170721072907310739074107C9
:1013A00049075107590763076B0773077B078307D3
:0C13B0008B0793079B07A507AD07B50747
:0613BC00010A0101E80333
:00000001FF
