:100000000C9446000C9419090C941A090C94650080
:100010000C9465000C9465000C9465000C946500CC
:100020000C9465000C9427090C9465000C9421092C
:100030000C9465000C9465000C9465000C946500AC
:100040000C941B090C9465000C9465000C946500DD
:100050000C9465000C9465000C9465000C9465008C
:100060000C9465000C9465000C9465000C9465007C
:100070000C9465000C9465000C94A2050C9465002A
:100080000C9437050C9465000C94650011241FBE78
:10009000CFEFD0E1DEBFCDBF11E0A0E0B1E0E4E7FB
:1000A000F3E100E00BBF02C007900D92A830B1074A
:1000B000D9F726E0A8E0B1E001C01D92A838B20748
:1000C000E1F70E945F090C9485090C94000082E01E
:1000D00083BF1BBC1ABC19BC18BC84ED90E397BD50
:1000E00086BD1FBC8AE18EBD87B7806287BF089539
:1000F000EAE7F1E01082349681E0EA3BF807D1F7B5
:100100001092790108959091790180E0E92FE80F2C
:10011000EF7024E0E29FF0011124E658FE4F2081A9
:10012000222321F08F5F803189F7089580910801A3
:10013000818380910901828380910A01838381E018
:10014000808308950F931F93CF93DF93809179015C
:1001500090E08C01000F111F000F111FE801C6581D
:10016000DE4F28812223D9F00E946D05882339F0C3
:10017000698188818F5F8883863031F41882DF91AE
:10018000CF911F910F9108956F706E5FC8018558D0
:100190009E4FDF91CF911F910F910C947B0501969B
:1001A0008F70992780937901EACF0895962FABEB52
:1001B000B1E0FB018E2F891B841730F04093BA0108
:1001C00081E080930D01089581918D93F3CF10927A
:1001D0000F0108950197E8E0F1E022E420839C01FB
:1001E0003695279536952795218381FB992790F998
:1001F000906892831092000180930C010E9483000A
:1002000080E00895E8E0F1E081E2808384E2818388
:10021000109200018FEF80930C010E94830080E018
:10022000089581E080930F010C94020120910E014A
:100230002223A1F0019722E5209308019C01369525
:1002400027953695279520930901880F8670617050
:10025000862B806880930A010C948300089586EDB4
:1002600090E09093200180931F0185ED90E09093A2
:1002700018018093170181E191E090931E01809312
:100280001D0187EE90E090931C0180931B0108955F
:10029000262F30E064FBEE27E0F9F0E090E0880FD5
:1002A000991FE82BF92B80910001811108C08091E2
:1002B0000C018E171F0619F481E080930001637012
:1002C000EE0FFF1FDF01A550BE4F613021F06230FD
:1002D000A1F01C9202C082E08C933595279535954C
:1002E000279523703327E450FE4F2130310539F034
:1002F0002230310539F01082089581E0EDCF82E09F
:100300008083089581E0FCCF0F931F93CF93DF93F9
:100310008091BA019091BB01833079F5913691F4C7
:100320002091BC01213039F420930E01DF91CF914F
:100330001F910F91089510920E012091BC0122236C
:1003400019F004C09138C9F710920E01923471F778
:1003500082508093BA01CBEBD1E001E010E08091B4
:10036000BA018017110611F308F36A8189810E948E
:1003700048010E5F1F4F2296F2CF843039F7923634
:1003800029F78091BC01823289F6809100018111A8
:1003900007C080910C018F3F19F481E08093000128
:1003A0008091BD018B7421F481E080930E01BECF5A
:1003B00010920E01BBCF80910D01882321F0109285
:1003C0000D010C94840108950F931F93CF93C62FB2
:1003D0008150082F10E005501E4FF80180818111D7
:1003E0000BC06091FD058C2F0E94D3066091FD0526
:1003F00081E08C0F0E94D306F8018081813051F496
:100400006091FC058C2F0E94D30660E081E08C0F88
:100410000E94D306F8018081823051F460E08C2F75
:100420000E94D3066091FC0581E08C0F0E94D306E8
:10043000F8018081833061F463E08C2F0E94D30641
:1004400063E081E08C0FCF911F910F910C94D30644
:10045000CF911F910F91089580910E01882379F01B
:1004600081E08093FC051092FD05E0911401E150BC
:10047000EF3178F4F0E0E957F64F0C947C0982E014
:100480008093FC058093FD05F0CF60E084E00E943E
:10049000E40180911401882309F465C18F5F8432DF
:1004A00008F05FC180931401089562E087E0EFCF08
:1004B00064E085E0ECCF66E0F9CF68E08BE0E7CF61
:1004C0006AE0F7CF6CE089E0E2CF6EE0FCCF80918C
:1004D000130161E0811101C060E080E10E94D30658
:1004E000D8CF90E080E00E948D0661E0882389F2F9
:1004F00084E090E00E941601CCCF81E090E00E9461
:100500008D06882331F260E0F3CF82E090E00E9414
:100510008D0661E0882309F4BCCF87E090E0EACF44
:1005200083E090E00E948D06882309F4B2CF60E05A
:10053000F4CF84E090E00E948D0661E0882309F406
:10054000A8CF85E090E0D6CF85E090E00E948D06B0
:10055000882309F49ECF60E0F4CF86E090E00E940B
:100560008D0661E0882309F494CF8BE090E0C2CF40
:1005700087E090E00E948D06882309F48ACF60E02E
:10058000F4CF88E090E00E948D0660E0882309F4B3
:1005900080CF89E090E0AECF89E090E00E948D06A8
:1005A000882309F476CF61E0F4CF8AE090E00E94DE
:1005B0008D06882309F46DCF80910E01882331F0D8
:1005C0008091130191E089278093130160911301B9
:1005D0008FE390E08FCF8BE090E00E948D06882320
:1005E00009F457CF80910E01882331F080911001DA
:1005F00091E08927809310016091100189E890E0D3
:1006000079CF8CE090E00E948D06882309F441CFD9
:1006100080910E01882331F08091110191E08927AA
:1006200080931101609111018AE890E063CF8DE021
:1006300090E00E948D06882309F42BCF80910E0153
:10064000882331F08091120191E089278093120173
:10065000609112018BE890E04DCF8EE090E00E9417
:100660008D06882329F061E081E890E00E94160160
:100670008EE090E00E94B006882309F40ACF62E081
:1006800081E890E037CF8FE090E00E948D068823CC
:1006900029F061E082E890E00E9416018FE090E08E
:1006A0000E94B006882309F4F4CE62E082E890E06C
:1006B00021CF80E190E00E948D06882329F061E03F
:1006C00083E890E00E94160180E190E00E94B0066D
:1006D000882309F4DECE62E083E890E00BCF81E16D
:1006E00090E00E948D06882329F061E084E890E084
:1006F0000E94160181E190E00E94B006882309F46F
:10070000C8CE62E084E890E0F5CE82E190E00E94FD
:100710008D06882329F061E085E890E00E941601AB
:1007200082E190E00E94B006882309F4B2CE62E034
:1007300085E890E0DFCE83E190E00E948D0688237B
:1007400029F061E086E890E00E94160183E190E0E4
:100750000E94B006882309F49CCE62E086E890E00F
:10076000C9CE10921401089580910E01882309F4D6
:10077000CFC081E08093FC051092FD0580911501AA
:10078000882309F48FC01092150180911401811102
:1007900003C081E080931401809116018F5F8093E4
:1007A000160180910F01882309F481C08091020114
:1007B000882319F0863409F0B4C0809101018111B9
:1007C000ADC088E7809301010E940201809102017F
:1007D000882391F0815080930201843409F0A6C0EF
:1007E00084E090E00E94EA0090910201923421F4AA
:1007F00085E090E00E94EA0090910201903421F49B
:1008000087E090E00E94EA00909102019E3321F47B
:1008100089E090E00E94EA00909102019C3321F46B
:100820008BE090E00E94EA00882329F08091020189
:100830008F5F80930201809102018A3309F078C0B2
:10084000EBEFF1E02FE032E080E09191890F2E177D
:100850003F07D9F7843010F0109202018091020115
:10086000843329F461E087E090E00E9416018091D2
:100870000201823329F461E089E090E00E941601D0
:1008800080910201803329F461E08BE090E00E94C6
:100890001601809102018E3229F461E08FE390E02D
:1008A0000E94160180910F0181110E942C028091FB
:1008B0000E01811107C080910201882319F086E49E
:1008C0008093020180910F0181114FC086E48093D3
:1008D000020180911601883010F01092160180916B
:1008E0001601811137C060E08EE00E94D30660E0FF
:1008F0008FE00E94D3068091160163E0880F0E946A
:10090000D30680911601880F63E08F5F0C94D306A5
:1009100082E08093FC058093FD0530CF8150809369
:10092000010180910101811151CF4BCF80E05CCF5B
:10093000883329F461E084E090E00E941601809100
:100940000201863309F08ACF61E085E090E00E94E1
:10095000160184CF815860E0880F0E94D3068091F1
:100960001601880F60E08150C4CF089581E0809324
:10097000150108958093070610929800109299002F
:10098000EBE9F0E080818D7F8083E2E6F0E080811A
:100990008E7F808386E080939D008CED80939A000B
:1009A000089580912401909125018E319105A0F444
:1009B000019690932501809324014E9769F48091CC
:1009C0002601882349F010922601E0911B01F09145
:1009D0001C01309709F00994089580912801811134
:1009E0001AC081E080932701E0912A019FEF9E0FBA
:1009F000E150FF0B4EEF55E0DA0180E02A2F241B77
:100A0000291730F0E250FA4F808390E080E008959B
:100A10002D918227F3CF81E090E0089580919B0093
:100A200085FFFCCF80919A008E7F80939A00E091A1
:100A30002901F0E0E250FA4F808180939C00809180
:100A400029018F5F80932901089581E08093280117
:100A50001092270110922901809162008160809399
:100A6000620080919B0085FFFCCF0C940E051F92C5
:100A70000F920FB60F9211240BB60F922F933F9344
:100A80004F935F936F937F938F939F93AF93BF9396
:100A9000EF93FF939091290180912A019817A8F470
:100AA0000E940E05FF91EF91BF91AF919F918F91A1
:100AB0007F916F915F914F913F912F910F900BBE5E
:100AC0000F900FBE0F901F901895809162008E7F3F
:100AD0008093620010922801E5CF80912801811156
:100AE00008C080912701811104C080912601817086
:100AF000089580E0FCCF1F93CF93DF93D82F192F59
:100B0000C62F0E946D058823D1F082E090E0C930A5
:100B100078F49D2FAEEFB5E0ED2FF12F8E2F891BCE
:100B20008C1750F0C0932A010E94ED0490E080E001
:100B3000DF91CF911F91089581918D93EFCF81E047
:100B400090E0F6CF1F920F920FB60F9211240BB6C2
:100B50000F922F933F934F935F936F937F938F9356
:100B60009F93AF93BF93CF93EF93FF9380919B009D
:100B700090919A00C0919C008C7181F591FF5EC0AC
:100B80002C2F98E0322F3170832726959150D1F782
:100B9000811124C08C2F8F7180930606C295C69553
:100BA000C3709091070689133AC0C23059F58091FD
:100BB000270181110E942505109225011092240120
:100BC0008091260181110AC081E080932601E09185
:100BD0001D01F0911E01309709F00995FF91EF91E9
:100BE000CF91BF91AF919F918F917F916F915F91C5
:100BF0004F913F912F910F900BBE0F900FBE0F9012
:100C00001F901895C1110BC080E28093FE05809360
:100C1000FF0582E080932A010E942505DFCF811124
:100C20000AC0C13041F481E0809322011092210179
:100C300010922301D3CFC33089F6F5CF80912201E2
:100C4000811115C0909106068091070698130FC078
:100C500082B76FE10E94700981E0890F80930706D7
:100C6000E0911901F0911A01309709F009958091EE
:100C7000230187FD0DC0909121019C2790932101B4
:100C8000E82FF0E0E85FF94FC0838F5F8093230186
:100C90008091080640912301982F9F709E5F49170D
:100CA00008F49CCF90912101911114C08F71809311
:100CB000060690912201E0911F01F091200191110F
:100CC00004C0E0911701F0911801309719F068E025
:100CD00076E0099510922201A9CF88E78BBB80E6C8
:100CE00088BB8EE485BB80E382BB90EC93B99EE920
:100CF0009093620091E09093650094E89ABB91E92B
:100D000097BB91EB94BB9AEC91BB82B981E680933F
:100D1000610082E0809364000895FC0193E0F69501
:100D2000E7959A95E1F7FF27EB5BFE4F3081282F7F
:100D30002770432F50E0022E02C0559547950A9424
:100D4000E2F740FF0BC081E090E001C0880F2A95D8
:100D5000EAF780958323808381E0089580E00895F9
:100D6000FC0193E0F695E7959A95E1F7FF27EE5B96
:100D7000FE4F3081282F2770432F50E0022E02C0F3
:100D8000559547950A94E2F740FF0BC081E090E04B
:100D900001C0880F2A95EAF780958323808381E03C
:100DA000089580E00895E82FF0E0E25BFE4F608355
:100DB00008958150843108F091C0E82FF0E0EA55A1
:100DC000F64F0C947C0980917101CE9904C081602A
:100DD0008093710108958E7FFBCF80917101CD9931
:100DE00002C08260F5CF8D7FF3CF809171019A9917
:100DF00002C08460EDCF8B7FEBCF809171019B9916
:100E000002C08860E5CF877FE3CF8091710184992C
:100E100002C08061DDCF8F7EDBCF8091710185992B
:100E200002C08062D5CF8F7DD3CF809171010799A9
:100E300002C08064CDCF8F7BCBCF80917101CB99E5
:100E400002C08068C5CF8F77C3CF809172010F99A0
:100E500004C081608093720108958E7FFBCF8091E2
:100E600072010E9902C08260F5CF8D7FF3CF809121
:100E70007201049902C08460EDCF8B7FEBCF80912B
:100E80007201039902C08860E5CF877FE3CF80912C
:100E90007201029902C08061DDCF8F7EDBCF80912D
:100EA0007201019902C08062D5CF8F7DD3CF80912E
:100EB0007201CC9902C08064CDCF8F7BCBCF809163
:100EC0007201999902C08068C5CF8F77C3CF809196
:100ED0007301B69904C081608093730108958E7F79
:100EE000FBCF809173019E9902C08260F5CF8D7F08
:100EF000F3CF80917301B59902C08460EDCF8B7FF1
:100F0000EBCF909163008091730190FD02C08860E7
:100F1000E3CF877FE1CF80914B0180FF50C0DF9A04
:100F200080914B0181FF4DC0AF9A80914B0182FFB0
:100F30004AC0AC9A80914B0183FF47C0AD9A809123
:100F40004B0184FF44C0969A80914B0185FF41C0BC
:100F5000979A80914B0186FF3EC0A89A80914B01E1
:100F600087FF3BC08091650082608093650080911F
:100F70004C019091620080FF34C0906490936200B5
:100F800081FF31C0DA9A82FF30C0C79A83FF2FC039
:100F9000919A84FF2EC0C09A85FF2DC0C49A86FF07
:100FA0002CC01C9A87FF2BC01D9A80914D0180FF99
:100FB00028C0809162008062809362000895DF986B
:100FC000AFCFAF98B2CFAC98B5CFAD98B8CF969819
:100FD000BBCF9798BECFA898C1CF809165008D7F79
:100FE000C4CF9F7BCBCFDA98CECFC798CFCF919885
:100FF000D0CFC098D1CFC498D2CF1C98D3CF1D9852
:10100000D4CF809162008F7DD7CF282F269526954B
:10101000269530E0782F7770F901EF58FE4F408128
:1010200050E0072E02C0559547950A94E2F74170AB
:10103000E82FF0E0D901AC58BE4F8C9190E0072E1C
:1010400002C0959587950A94E2F78170E25DFE4FA4
:101050004817B9F080818F5F8083861798F0F90177
:10106000E259FE4F208181E090E001C0880F7A951F
:10107000EAF7442319F0822B808308958095822318
:10108000FBCF10820895E82FF0E0E25BFE4F508125
:101090005370E82FE695E695E695F0E0E55BFE4FA8
:1010A0004081877021E030E0B90102C0660F771FF0
:1010B0008A95E2F7CB01523039F0533061F051306C
:1010C00039F08095842305C0209103012223C9F3C0
:1010D000842B8083089520910401F8CFCF93DF9370
:1010E00080912D018823B1F080912B0110922D0168
:1010F000811103C081E080932B0180912C018F5FCF
:10110000863020F580932C0180910401882359F1C9
:1011100010920401C0912B01DC2FDF718C2F90E025
:101120009C0145E0359527954A95E1F723702130DC
:10113000F1F48D2F0E94D90680912B01882319F09C
:101140008F5F80932B01DF91CF91089510922C0136
:1011500080910301882319F010920301D5CF81E01B
:1011600080930301D1CF81E080930401D3CF22305B
:10117000A9F4D13138F0D43168F462E08D2F0E94A7
:101180000508DACF8D2F0E94430862E08D2F0E9460
:101190000508F3CFCF61C0932B01CECF233061F68A
:1011A00023E0959587952A95E1F78370DC2FD7701A
:1011B000811114C08D2F90E0FC01EC58FE4F825934
:1011C0009E4FDC018C918083D23009F0B5CFC7608F
:1011D000E2CF0E948B07D111AFCFF9CF8130C9F395
:1011E000823009F0A9CF2D2F30E0F901EC58FE4FE5
:1011F0004081D901A85BBE4F8C91F901EB5BFE4F9A
:10120000982F909594235081952B9083F901EE5B54
:10121000FE4F842B84279081892B80834C93D2307E
:1012200009F08ACF10922B0187CF81E080932D01A6
:101230000895189518958F9381E0809378018F9188
:1012400018958F9381E0809377018F911895189569
:1012500080917701882391F0109277010E941509FF
:101260000E94B6040E94D10480910501909106016C
:10127000019729F09093060180930501089580EE6F
:101280009EE2F8CF80917801811110927801089543
:101290000E946D06E1E6F0E0808181608083E2E6F5
:1012A000F0E080818E7F80830E9467008AE10E9447
:1012B000BA040E9478000E942F017894089587EF65
:1012C0008CBF0E9448090E9442090E9428090E947E
:1012D0006E080E94DB010E94A2000E94B403F3CFBB
:1012E000991B79E004C0991F961708F0961B881F78
:1012F0007A95C9F780950895EE0FFF1F0024001C12
:101300000BBE0790F691E02D0994F894FFCF4502AB
:10131000550258025B025D026002620265026702CA
:101320004902490271027D02850290029902A402DB
:10133000AD02B802C102CC02D502EB0201031703D1
:101340002D03430359036F0385039B03E306ED0657
:10135000F506FD0605070D0715071D0725072F07CD
:1013600037073F0747074F0757075F0767077107AB
:041370007907810771
:08137400013C460101E8030001
:00000001FF
