:100000000C9446000C944F090C9450090C94650014
:100010000C9465000C9465000C9465000C946500CC
:100020000C9465000C945D090C9465000C945709C0
:100030000C9465000C9465000C9465000C946500AC
:100040000C9451090C9465000C9465000C946500A7
:100050000C9465000C9465000C9465000C9465008C
:100060000C9465000C9465000C9465000C9465007C
:100070000C9465000C9465000C94CF050C946500FD
:100080000C9464050C9465000C94650011241FBE4B
:10009000CFEFD0E1DEBFCDBF11E0A0E0B1E0E2EBF9
:1000A000F3E100E00BBF02C007900D92A630B1074C
:1000B000D9F726E0A6E0B1E001C01D92A838B2074A
:1000C000E1F70E9495090C94BB090C940000EAE743
:1000D000F1E01082349681E0EA3BF807D1F7109204
:1000E000790108959091790180E0E92FE80FEF7090
:1000F00024E0E29FF0011124E658FE4F20812223E4
:1001000021F08F5F803189F7089580910801818304
:1001100080910901828380910A01838381E0808339
:1001200008950F931F93CF93DF938091790190E00F
:100130008C01000F111F000F111FE801C658DE4F80
:1001400028812130D1F40E949A05882339F06981F1
:1001500088818F5F8883833031F41882DF91CF915B
:100160001F910F9108956F706E5FC80185589E4F63
:100170000E94A80582E08883F1CF2111EFCF01967C
:100180008F70992780937901E9CFE091790184E01C
:10019000E89FF0011124E658FE4F8081823051F42F
:1001A000809106018F5F80930601803118F01082E4
:1001B000109206010895809107018F5F80930701D7
:1001C000E091790184E0E89FF0011124E658FE4FA8
:1001D0008081823021F41092060181E080830895AD
:1001E000EAE7F1E08081811107C0349681E0EA3BC3
:1001F000F807C1F781E0089580E008950895962FEB
:10020000ABEBB1E0FB018E2F891B841730F04093DC
:10021000BA0181E080930D01089581918D93F3CF10
:1002200010920F0108950197E8E0F1E022E42083A5
:100230009C013695279536952795218381FB992733
:1002400090F9906892831092000180930C010E94B3
:10025000720080E00895E8E0F1E081E2808384E2CA
:100260008183109200018FEF80930C010E94720035
:1002700080E008950E942B0181E080930F01089592
:10028000CF9320910E012223E1F0019722E52093E4
:1002900008019C01369527953695279520930901ED
:1002A000880F86706170C82FC62B8C2F886880934A
:1002B0000A010E947200C068C0930A01CF910C9499
:1002C0007200CF9108958FEF90E09093200180937A
:1002D0001F018EEF90E090931801809317018AE33D
:1002E00091E090931E0180931D0180E191E0909335
:1002F0001C0180931B010895262F30E064FBEE273C
:10030000E0F9F0E090E0880F991FE82BF92B80913D
:100310000001811108C080910C018E171F0619F48D
:1003200081E0809300016370EE0FFF1FDF01A55095
:10033000BE4F613021F06230A1F01C9202C082E019
:100340008C93359527953595279523703327E45061
:10035000FE4F2130310539F02230310539F010825D
:10036000089581E0EDCF82E08083089581E0FCCFA5
:100370000F931F93CF93DF938091BA01833069F479
:100380008091BB01813661F58091BC01811149C02A
:1003900010920E0102C080930E018091BA019091DB
:1003A000BB01843039F5923629F58091BC01823247
:1003B00091F480910001811107C080910C018F3F61
:1003C00019F481E0809300018091BD018B7479F470
:1003D00081E080930E01DF91CF911F910F910895DD
:1003E0008138D9F68091BC018111D7CFD1CF10923D
:1003F0000E01F1CF923479F782508093BA01CBEBA2
:10040000D1E001E010E08091BA018017110619F3E4
:1004100010F36A8189810E947C010E5F1F4F229632
:10042000F2CF813009F4B7CF823009F4B1CF8138EF
:1004300009F0B3CF0E94DB00B0CF80910D0188237B
:1004400021F010920D010C94B80108950F931F93A1
:10045000CF93C62F8150082F10E005501E4FF80192
:10046000808181110BC06091FD058C2F0E940207D5
:100470006091FD0581E08C0F0E940207F8018081E8
:10048000813051F46091FC058C2F0E94020760E0DE
:1004900081E08C0F0E940207F8018081823051F4C4
:1004A00060E08C2F0E9402076091FC0581E08C0FB8
:1004B0000E940207F8018081833061F463E08C2F91
:1004C0000E94020763E081E08C0FCF911F910F9192
:1004D0000C940207CF911F910F91089580910E0106
:1004E000882379F081E08093FC051092FD05E0916E
:1004F0001401E150E830D8F4F0E0E354F64F0C94E6
:10050000B20982E08093FC058093FD05F0CF60E0A6
:1005100084E00E94260262E087E00E94260264E0F6
:1005200085E00E94260266E087E00E942602809114
:100530001401882309F46DC18F5F893008F067C109
:1005400080931401089568E08BE00E9426026AE01F
:1005500085E00E9426026CE089E00E9426026EE09F
:1005600089E0E3CF8091130161E0811101C060E077
:1005700080E10E94020790E080E00E94BC06882390
:1005800029F061E084E090E00E94400181E090E089
:100590000E94BC06882329F060E084E090E00E947D
:1005A000400182E090E00E94BC06882309F4BFCF9E
:1005B00061E087E090E00E944001B9CF83E090E0E5
:1005C0000E94BC06882329F060E087E090E00E944A
:1005D000400184E090E00E94BC06882329F061E09D
:1005E00085E090E00E94400185E090E00E94BC061A
:1005F000882329F060E085E090E00E94400186E0D9
:1006000090E00E94BC06882309F491CF61E08BE062
:1006100090E0D1CF87E090E00E94BC06882329F0CB
:1006200060E08BE090E00E94400188E090E00E9452
:10063000BC06882329F060E089E090E00E94400138
:1006400089E090E00E94BC06882329F061E089E0FF
:1006500090E00E9440018AE090E00E94BC0688235E
:1006600009F465CF80910E01882331F08091130148
:1006700091E0892780931301609113018FE390E04B
:100680009ACF8BE090E00E94BC06882381F0809195
:100690000E01882331F08091100191E08927809329
:1006A00010016091100189E890E00E9440018CE007
:1006B00090E00E94BC06882381F080910E0188237F
:1006C00031F08091110191E08927809311016091AF
:1006D00011018AE890E00E9440018DE090E00E94C4
:1006E000BC06882309F423CF80910E01882331F0C2
:1006F0008091120191E0892780931201609112018B
:100700008BE890E058CF8EE090E00E94BC068823F2
:1007100029F061E081E890E00E9440018EE090E0E5
:100720000E94DF06882329F062E081E890E00E94C1
:1007300040018FE090E00E94BC06882329F061E030
:1007400082E890E00E9440018FE090E00E94DF0686
:10075000882329F062E082E890E00E94400180E175
:1007600090E00E94BC06882329F061E083E890E0D5
:100770000E94400180E190E00E94DF06882329F07A
:1007800062E083E890E00E94400181E190E00E94F5
:10079000BC06882329F061E084E890E00E944001D3
:1007A00081E190E00E94DF06882309F4C0CE62E078
:1007B00084E890E000CF82E190E00E94BC068823AC
:1007C00029F061E085E890E00E94400182E190E03C
:1007D0000E94DF06882329F062E085E890E00E940D
:1007E000400183E190E00E94BC06882329F061E08B
:1007F00086E890E00E94400183E190E00E94DF06DD
:10080000882309F494CE62E086E890E0D4CE10927A
:100810001401089580910E01882309F48FC081E0AE
:100820008093FC051092FD0580911501882309F441
:100830004FC01092150180911401811103C081E015
:1008400080931401809116018F5F8093160180912F
:100850000F01882309F441C080910101882331F1FF
:100860008150809301018530A1F484E090E00E94E2
:10087000130185E090E00E94130187E090E00E9460
:10088000130189E090E00E9413018BE090E00E9448
:10089000130180910101833049F40E94F00081111D
:1008A00005C0809101018F5F80930101809101015A
:1008B000823009F049C0EBEFF1E080E09191890FBF
:1008C00092E0EF30F907D1F7843010F01092010177
:1008D00080910F0181110E946E0280910E018111A1
:1008E00007C080910101882319F08AE080930101FB
:1008F00080910F01811155C08AE0809301018091A0
:100900001601883010F010921601809116018111A5
:100910003DC060E08EE00E94020760E08FE00E9430
:1009200002078091160163E0880F0E940207809100
:100930001601880F63E08F5F0C94020782E08093BA
:10094000FC058093FD0570CF813009F0C1CF61E0D7
:1009500084E090E00E94400161E085E090E00E9428
:10096000400161E087E090E00E94400161E089E0A1
:1009700090E00E94400161E08BE090E00E94400125
:1009800061E08FE390E00E944001A2CF815860E0D7
:10099000880F0E94020780911601880F60E0815045
:1009A000BECF089581E080931501089582E083BF52
:1009B0001BBC1ABC19BC18BC84ED90E397BD86BD66
:1009C0001FBC8AE18EBD87B7806287BF0895809380
:1009D00007061092980010929900EBE9F0E08081F0
:1009E0008D7F8083E2E6F0E080818E7F808386E0E9
:1009F00080939D008CED80939A000895809124014E
:100A0000909125018E319105A0F4019690932501D6
:100A1000809324014E9769F480912601882349F040
:100A200010922601E0911B01F0911C01309709F012
:100A3000099408958091280181111AC081E0809362
:100A40002701E0912A019FEF9E0FE150FF0B4EEF2F
:100A500055E0DA0180E02A2F241B291730F0E250FC
:100A6000FA4F808390E080E008952D918227F3CFA4
:100A700081E090E0089580919B0085FFFCCF8091FC
:100A80009A008E7F80939A00E0912901F0E0E25075
:100A9000FA4F808180939C00809129018F5F809321
:100AA0002901089581E08093280110922701109276
:100AB00029018091620081608093620080919B0097
:100AC00085FFFCCF0C943B051F920F920FB60F923F
:100AD00011240BB60F922F933F934F935F936F9315
:100AE0007F938F939F93AF93BF93EF93FF939091D7
:100AF000290180912A019817A8F40E943B05FF91D3
:100B0000EF91BF91AF919F918F917F916F915F9185
:100B10004F913F912F910F900BBE0F900FBE0F90F2
:100B20001F901895809162008E7F809362001092D2
:100B30002801E5CF80912801811108C0809127010B
:100B4000811104C0809126018170089580E0FCCF5E
:100B50001F93CF93DF93D82F192FC62F0E949A058A
:100B60008823D1F082E090E0C93078F49D2FAEEF79
:100B7000B5E0ED2FF12F8E2F891B8C1750F0C0930D
:100B80002A010E941A0590E080E0DF91CF911F9129
:100B9000089581918D93EFCF81E090E0F6CF1F9281
:100BA0000F920FB60F9211240BB60F922F933F9313
:100BB0004F935F936F937F938F939F93AF93BF9365
:100BC000CF93EF93FF9380919B0090919A00C091F7
:100BD0009C008C7191F591FF60C02C2F98E0322F12
:100BE0003170832726959150D1F7811126C08C2F23
:100BF0008F7180930606C295C695C37090910706C3
:100C000089133CC0C23069F58091270181110E948F
:100C1000520510922501109224010E94C500809176
:100C2000260181110AC081E080932601E0911D0117
:100C3000F0911E01309709F00995FF91EF91CF9146
:100C4000BF91AF919F918F917F916F915F914F91E4
:100C50003F912F910F900BBE0F900FBE0F901F90E2
:100C60001895C1110BC080E28093FE058093FF05AB
:100C700082E080932A010E945205DFCF81110AC0D1
:100C8000C13041F481E08093220110922101109241
:100C90002301D3CFC33089F6F5CF80912201811192
:100CA00015C0909106068091070698130FC082B771
:100CB0006FE10E94A60981E0890F80930706E09109
:100CC0001901F0911A01309709F0099580912301DB
:100CD00087FD0DC0909121019C2790932101E82F61
:100CE000F0E0E85FF94FC0838F5F8093230180912C
:100CF000080640912301982F9F709E5F491708F4C2
:100D00009CCF90912101911114C08F7180930606A0
:100D100090912201E0911F01F0912001911104C0F6
:100D2000E0911701F0911801309719F068E076E032
:100D3000099510922201A9CF88E78BBB80E688BB7A
:100D40008EE485BB80E382BB90EC93B99EE99093DF
:100D5000620091E09093650094E89ABB91E997BB9B
:100D600091EB94BB9AEC91BB82B981E680936100D0
:100D700082E0809364000895FC0193E0F695E79586
:100D80009A95E1F7FF27EB5BFE4F3081282F277004
:100D9000432F50E0022E02C0559547950A94E2F782
:100DA00040FF0BC081E090E001C0880F2A95EAF770
:100DB00080958323808381E0089580E00895FC017D
:100DC00093E0F695E7959A95E1F7FF27EE5BFE4FE6
:100DD0003081282F2770432F50E0022E02C05595F6
:100DE00047950A94E2F740FF0BC081E090E001C014
:100DF000880F2A95EAF780958323808381E0089500
:100E000080E00895E82FF0E0E25BFE4F60830895F4
:100E10008150843108F091C0E82FF0E0EB53F64F99
:100E20000C94B20980917101CE9904C081608093C5
:100E3000710108958E7FFBCF80917101CD9902C021
:100E40008260F5CF8D7FF3CF809171019A9902C0B6
:100E50008460EDCF8B7FEBCF809171019B9902C0B5
:100E60008860E5CF877FE3CF80917101849902C0CC
:100E70008061DDCF8F7EDBCF80917101859902C0CB
:100E80008062D5CF8F7DD3CF80917101079902C049
:100E90008064CDCF8F7BCBCF80917101CB9902C085
:100EA0008068C5CF8F77C3CF809172010F9904C03E
:100EB00081608093720108958E7FFBCF80917201D3
:100EC0000E9902C08260F5CF8D7FF3CF80917201C1
:100ED000049902C08460EDCF8B7FEBCF80917201CB
:100EE000039902C08860E5CF877FE3CF80917201CC
:100EF000029902C08061DDCF8F7EDBCF80917201CD
:100F0000019902C08062D5CF8F7DD3CF80917201CD
:100F1000CC9902C08064CDCF8F7BCBCF8091720102
:100F2000999902C08068C5CF8F77C3CF8091730134
:100F3000B69904C081608093730108958E7FFBCFC2
:100F4000809173019E9902C08260F5CF8D7FF3CFAF
:100F500080917301B59902C08460EDCF8B7FEBCF98
:100F6000909163008091730190FD02C08860E3CF8F
:100F7000877FE1CF80914B0180FF50C0DF9A809145
:100F80004B0181FF4DC0AF9A80914B0182FF4AC057
:100F9000AC9A80914B0183FF47C0AD9A80914B0181
:100FA00084FF44C0969A80914B0185FF41C0979A77
:100FB00080914B0186FF3EC0A89A80914B0187FF2C
:100FC0003BC08091650082608093650080914C01F8
:100FD0009091620080FF34C090649093620081FF22
:100FE00031C0DA9A82FF30C0C79A83FF2FC0919A2E
:100FF00084FF2EC0C09A85FF2DC0C49A86FF2CC0E6
:101000001C9A87FF2BC01D9A80914D0180FF28C03C
:10101000809162008062809362000895DF98AFCF74
:10102000AF98B2CFAC98B5CFAD98B8CF9698BBCFAC
:101030009798BECFA898C1CF809165008D7FC4CF0F
:101040009F7BCBCFDA98CECFC798CFCF9198D0CF18
:10105000C098D1CFC498D2CF1C98D3CF1D98D4CFED
:10106000809162008F7DD7CF282F269526952695D3
:1010700030E0782F7770F901EF58FE4F408150E053
:10108000072E02C0559547950A94E2F74170E82F64
:10109000F0E0D901AC58BE4F8C9190E0072E02C011
:1010A000959587950A94E2F78170E25DFE4F4817A7
:1010B000B9F080818F5F8083861798F0F901E2593B
:1010C000FE4F208181E090E001C0880F7A95EAF719
:1010D000442319F0822B8083089580958223FBCFCF
:1010E00010820895E82FF0E0E25BFE4F50815370CC
:1010F000E82FE695E695E695F0E0E55BFE4F40814A
:10110000877021E030E0B90102C0660F771F8A9531
:10111000E2F7CB01523039F0533061F0513039F001
:101120008095842305C0209102012223C9F3842BDA
:101130008083089520910301F8CFCF93DF938091AE
:101140002B01811103C081E080932B0180912D013F
:101150008823B1F080912B0110922D01811103C0E1
:1011600081E080932B0180912C018F5F863020F5E8
:1011700080932C0180910301882359F1109203017F
:10118000C0912B01DC2FDF718C2F90E09C0145E09A
:10119000359527954A95E1F723702130F1F48D2F8D
:1011A0000E94080780912B01882319F08F5F80939C
:1011B0002B01DF91CF91089510922C0180910201B3
:1011C000882319F010920201D5CF81E080930201AB
:1011D000D1CF81E080930301D3CF2230A9F4D13164
:1011E00038F0D43168F463E08D2F0E943408DACFF0
:1011F0008D2F0E94720863E08D2F0E943408F3CF78
:10120000CF61C0932B01CECF233061F623E09595BB
:1012100087952A95E1F78370DC2FD770811114C070
:101220008D2F90E0FC01EC58FE4F82599E4FDC015F
:101230008C918083D23009F0B5CFC760E2CF0E9495
:10124000BA07D111AFCFF9CF8130C9F3823009F09D
:10125000A9CF2D2F30E0F901EC58FE4F4081D90184
:10126000A85BBE4F8C91F901EB5BFE4F982F9095D8
:1012700094235081952B9083F901EE5BFE4F842BD4
:1012800084279081892B80834C93D23009F08ACFB8
:1012900010922B0187CF81E080932D01089518953E
:1012A00018958F9381E0809378018F9118958F9393
:1012B00081E0809377018F9118951895809177013F
:1012C000882391F0109277010E944B090E94D2046A
:1012D0000E94FE048091040190910501019729F07C
:1012E0009093050180930401089580EE9EE2F8CF6B
:1012F0008091780181111092780108950E949C06D6
:10130000E1E6F0E0808181608083E2E6F0E08081C8
:101310008E7F80830E94D6048AE10E94E7040E94A7
:1013200067000E9463017894089587EF8CBF0E9444
:101330007E090E9478090E945E090E949D080E9411
:101340001D020E9491000E940A04F3CF991B79E0CC
:1013500004C0991F961708F0961B881F7A95C9F745
:1013600080950895EE0FFF1F0024001C0BBE079010
:10137000F691E02D0994F894FFCF8702A302B20200
:10138000DE020A0341038303DB0312071C07240761
:101390002C0734073C0744074C0754075E076607D1
:1013A0006E0776077E0786078E079607A007A807B1
:0213B000B00784
:0613B200010A0101E8033D
:00000001FF
